:100000000C942A000C9447000C9447000C949B0716
:100010000C9447000C9447000C9447000C94470044
:100020000C9447000C9447000C9447000C94470034
:100030000C9447000C9447000C9447000C94470024
:100040000C9447000C9447000C9447000C94470014
:100050000C94470011241FBECFE5D8E0DEBFCDBF12
:1000600011E0A0E6B0E0E2E4F7E102C005900D92F5
:10007000AC3DB107D9F712E0ACEDB1E001C01D9283
:10008000A134B107E1F70E94050A0C949F0B0C9470
:10009000000096B1987F96B9803129F1813148F0FE
:1000A0008034B9F0803869F08032B9F086B186B911
:1000B00008958430B1F0883041F08230B9F7309A39
:1000C000089586B1876086B9089586B1836086B940
:1000D000089586B1866086B9089586B1856086B92F
:1000E0000895319A0895329A0895CF93DF9300D0FE
:1000F000CDB7DEB7379A4A8369830E94490087B13A
:100100008F7387B969814A816130C9F0613050F4D9
:1001100087B187B9442369F43D980F900F90DF9120
:10012000CF9108956230A1F787B1806C87B94423DD
:1001300099F33D9A0F900F90DF91CF9108953E9AD9
:10014000E9CF97B19F7397B9813059F0813018F496
:1001500087B187B908958230D9F787B1806C87B9A4
:1001600008953E9A089597B1907C97B9833041F1F4
:10017000843068F08530B1F0853078F08630D1F089
:100180008730A1F097B18F71892B87B9089581309D
:10019000A9F0823020F0399A08953A9A089587B1EB
:1001A00087B9089587B1856087B9089587B1876059
:1001B00087B9089587B1866087B90895389A0895F8
:1001C00087B1836087B908950E94B300369A349B43
:1001D000FECF84B195B1392F20E090E0822B932B94
:1001E0000895843421F1853450F0823699F18336B4
:1001F00008F442C0833641F08436C9F00895823451
:1002000049F1833408F44EC0442309F466C04230F7
:1002100009F48BC0413091F724B381E090E002C033
:10022000880F991F6A95E2F7282B24BB0895442371
:1002300009F447C0423009F488C04130F9F621B3CF
:1002400081E090E002C0880F991F6A95E2F7282BA1
:1002500021BB0895442349F1423009F456C041308E
:1002600069F627B381E090E002C0880F991F6A9574
:10027000E2F7282B27BB0895813609F0BFCF44232E
:10028000C1F1423009F471C0413009F0B7CF2AB34F
:1002900081E090E002C0880F991F6A95E2F7282B51
:1002A0002ABB0895813459F3089527B381E090E083
:1002B00002C0880F991F6A95E2F78095822387BB59
:1002C000089521B381E090E002C0880F991F6A95DC
:1002D000E2F78095822381BB089524B381E090E00A
:1002E00002C0880F991F6A95E2F78095822384BB2C
:1002F00008952AB381E090E002C0880F991F6A95A3
:10030000E2F7809582238ABB089527B381E090E0CD
:1003100002C0880F991F6A95E2F7982F9095922353
:1003200097BB98B3982B98BB089524B381E090E0D5
:1003300002C0880F991F6A95E2F7982F9095922333
:1003400094BB95B3982B95BB089521B381E090E0C1
:1003500002C0880F991F6A95E2F7982F9095922313
:1003600091BB92B3982B92BB08952AB381E090E0A1
:1003700002C0880F991F6A95E2F7982F90959223F3
:100380009ABB9BB3982B9BBB0895843401F18534B1
:1003900048F0823661F18336C8F1833641F0843605
:1003A000B1F00895823419F1833408F440C0442335
:1003B00009F458C04130A9F725B381E090E002C0AC
:1003C000880F991F6A95E2F7282B25BB08954423CF
:1003D00009F43CC0413029F722B381E090E002C02B
:1003E000880F991F6A95E2F7282B22BB08954423B2
:1003F00009F14130B1F628B381E090E002C0880FE6
:10040000991F6A95E2F7282B28BB0895813649F693
:100410004423A1F1413029F62BB381E090E002C0E2
:10042000880F991F6A95E2F7282B2BBB089581341A
:1004300079F3089528B381E090E002C0880F991FF6
:100440006A95E2F78095822388BB089522B381E004
:1004500090E002C0880F991F6A95E2F78095822389
:1004600082BB089525B381E090E002C0880F991FF8
:100470006A95E2F78095822385BB08952BB381E0CE
:1004800090E002C0880F991F6A95E2F78095822359
:100490008BBB08952CB39FBB8EBB6DBBE29AE19AD8
:1004A00087EA91E60197F1F700C0000008959CB338
:1004B00090E09FBB8EBBE09A8DB308958630C9F063
:1004C000873059F0853009F00895633041F162308A
:1004D00051F18BB780628BBF08956623D9F06130EC
:1004E00031F1633061F16230B1F485B78C6085BF62
:1004F00012C0662351F06130F1F0633021F16230B7
:1005000029F485B7836085BF01C015BE8BB78064B1
:100510008BBF089515BE8BB780688BBF089585B7D4
:100520008F7B85BFD6CF85B7806485BFD2CF85B797
:10053000846085BFF0CF85B7816085BFE7CF85B781
:10054000886085BFE8CF85B7826085BFDFCF80EF49
:1005500084BB8FEF85BB8FE083BB85B38F7085BB7A
:1005600083B38F708F30C9F787E893E10197F1F774
:1005700000C0000083B38F708F30B1F787E893E13C
:100580000197F1F700C0000083B38F708F3061F7DF
:100590009FEE2FED3FEB4FE795BB83B38F708F300E
:1005A00041F525BB83B38F708F3001F535BB83B325
:1005B0008F708F3009F545BB83B38F708F3061F337
:1005C000E3E0F0E0EE0FFF1FEE0FFF1FE05AFF4FDA
:1005D0008E3031F08D3031F08B3031F083810895E1
:1005E000808108958181089582810895E1E0F0E09D
:1005F000E9CFE0E0F0E0E6CFE2E0F0E0E3CF02C0F8
:10060000000001970097E1F7089507C0E9EFF0E0D7
:100610003197F1F700C0000001970097B9F70895EE
:100620002BB3982F907F2F70922B9BBBD898D99883
:10063000DA9A0000DA9824E130E0000021503040DE
:10064000E1F79BB38295807F9F70892B8BBBDA9AF1
:100650000000DA9808958FEF8ABB80ED97E00000E4
:100660000197E9F783E30E94100384E690E000001D
:100670000197E9F782E30E94100384E690E000000E
:100680000197E9F788E20E94100384E690E00000F9
:100690000197E9F78CE00E94100384E690E00000E7
:1006A0000197E9F781E00E94100380ED97E00000D8
:1006B0000197E9F786E00E94100384E690E00000CD
:1006C0000197E9F708958FEF8ABBDA9880E29EE4FC
:1006D00000000197E9F783E00E94100380E197E2B0
:1006E00000000197E9F783E00E94100388EE93E091
:1006F00000000197E9F783E00E94100388EE93E081
:1007000000000197E9F782E00E94100388EE93E071
:1007100000000197E9F708952BB3982F907F2F7071
:10072000922B9BBBD89AD998DA9A0000DA989BB39F
:100730008295807F9F70892B8BBBDA9A0000DA98B4
:100740000895CF93DF9300D000D0CDB7DEB790E807
:10075000998390EC9A8394E99B8394ED9C838150D8
:10076000FE01E60FF11D9081890F0E94100384E6BF
:1007700090E000000197E9F70F900F900F900F9015
:10078000DF91CF9108958FE00E94100384E690E0FE
:1007900000000197E9F708958CE00E94100384E6B9
:1007A00090E000000197E9F7089580E10E941003AE
:1007B00084E690E000000197E9F7089584E10E9443
:1007C000100384E690E000000197E9F70895FC012A
:1007D00020812223E1F050E04BB3322F307F4F7065
:1007E000342B3BBBD89AD998DA9A0000DA983BB3FD
:1007F0002295207F3F70232B2BBBDA9A0000DA98DA
:100800005F5FFC01E50FF11D2081222329F7089588
:1008100081E00E94100380ED97E000000197E9F766
:1008200080E80E94100384E690E000000197E9F759
:100830000895CF93DF93EB01883008F0AEC0880FA6
:10084000880F880F805C0E94100388812BB3982F3B
:10085000907F2F70922B9BBBD89AD998DA9A000080
:10086000DA989BB38295807F9F70892B8BBBDA9A35
:100870000000DA9889812BB3982F907F2F70922BEC
:100880009BBBD89AD998DA9A0000DA989BB38295E4
:10089000807F9F70892B8BBBDA9A0000DA988A815F
:1008A0002BB3982F907F2F70922B9BBBD89AD998FF
:1008B000DA9A0000DA989BB38295807F9F70892B2B
:1008C0008BBBDA9A0000DA988B812BB3982F907F3C
:1008D0002F70922B9BBBD89AD998DA9A0000DA989D
:1008E0009BB38295807F9F70892B8BBBDA9A000027
:1008F000DA988C812BB3982F907F2F70922B9BBB13
:10090000D89AD998DA9A0000DA989BB38295807FBA
:100910009F70892B8BBBDA9A0000DA988D812BB3FC
:10092000982F907F2F70922B9BBBD89AD998DA9AE8
:100930000000DA989BB38295807F9F70892B8BBBD8
:10094000DA9A0000DA988E812BB3982F907F2F705F
:10095000922B9BBBD89AD998DA9A0000DA989BB36D
:100960008295807F9F70892B8BBBDA9A0000DA9882
:100970008F812BB3982F907F2F70922B9BBBD89A8F
:10098000D998DA9A0000DA989BB38295807F9F709D
:10099000892B8BBBDA9A0000DA98DF91CF9108950A
:1009A0000E942B0380E861E040E00E94750082E431
:1009B00060E041E00E94F10082E461E041E00E94D9
:1009C000F10082E463E041E00E94F10082E464E02F
:1009D00041E00E94F10082E462E042E00E94F10006
:1009E00085E063E00E945E02789489E190E060E037
:1009F0000E944A0208950E94080480E790E00E9445
:100A0000E70381E062E00E94A10384E890E00E9495
:100A1000E70308950E94080483E990E00E94E70339
:100A200081E062E00E94A1038DE990E00E94E7036B
:100A30000895AF92BF92CF92DF92EF92FF920F9301
:100A40001F93CF93DF93CDB7DEB766970FB6F894B9
:100A5000DEBF0FBECDBF2CE0E22EF12CEC0EFD1E52
:100A60006E010894C11CD11C3BE0A32ED701EA2DD6
:100A70001D92EA95E9F7D601EA2D1D92EA95E9F76C
:100A80000E94080481E061E00E94A10380EB90E0F5
:100A90000E94E70381E062E00E94A1030E94C30379
:100AA00000E010E00E94A702833291F08A3209F43C
:100AB00059C00A301105B1F3F701E00FF11F80832F
:100AC0000F5F1F4F8AE20E948C030B30110554F315
:100AD0000E94CC03B02E0E94080481E061E00E94D5
:100AE000A10384EC90E00E94E70381E062E00E94B1
:100AF000A1030E94C30300E010E00E94A70283321A
:100B000089F08A32E9F10A301105B9F3F601E00FF4
:100B1000F11F80830F5F1F4F8AE20E948C030B300E
:100B200011055CF30E94CC03B016C1F10E940804C9
:100B300081E061E00E94A10388ED90E00E94E7035C
:100B400081E062E00E94A10389EE90E00E94E70349
:100B50008FE39DE0A3E081509040A040E1F700C00A
:100B6000000084CF0115110509F49CCF0E94D50324
:100B700080E20E948C030E94D50301501040A5CF53
:100B80000115110509F4B9CF0E94D50380E20E9436
:100B90008C030E94D50301501040C1CFBB20B9F097
:100BA0009C858981981711F6FE013D96DE0112960B
:100BB0008B2D81509F01280F311DC901E817F907BE
:100BC00031F031912D91321709F0B0CFF7CFF89471
:100BD00081E090E06B2D0E944A02BB20C1F08701AA
:100BE0008DE0C82ED12CCC0EDD1EBA94CB0CD11CBE
:100BF00092E0E92EF12CD8016D918D01C7010E9480
:100C00004A020894E11CF11C0C151D05A1F778940B
:100C10000E94080488EF90E00E94E70381E062E010
:100C20000E94A1038BE091E00E94E7038FE39DE027
:100C3000A3E081509040A040E1F700C0000066961C
:100C40000FB6F894DEBF0FBECDBFDF91CF911F91DD
:100C50000F91FF90EF90DF90CF90BF90AF900895ED
:100C6000421711F080E00895442399F0FC0130818F
:100C7000FB0120813217B1F7DC011196319680E03B
:100C80008F5F841731F02D9191912917C9F380E07E
:100C9000089581E00895AF92BF92CF92DF92EF92D4
:100CA000FF920F931F93CF93DF93CDB7DEB72A97B1
:100CB0000FB6F894DEBF0FBECDBF6E010894C11C05
:100CC000D11C4AE0B42ED601EB2D1D92EA95E9F72E
:100CD0000E9408048AE191E00E94E70381E062E05B
:100CE0000E94A1030E94C30300E010E00E94A7023B
:100CF000833289F08A32B9F10A301105B9F3F6016D
:100D0000E00FF11F80830F5F1F4F8AE20E948C0368
:100D10000B3011055CF30E94CC0381E00E94570266
:100D2000081789F6002369F176010E5F12E003C00F
:100D30001F5F101731F1D701AD907D01812F0E9407
:100D40005702A816A9F30E9408048EE291E00E94BF
:100D5000E7038FE39DE0A3E081509040A040E1F7DE
:100D600000C00000B0CF0115110509F4BFCF0E94EB
:100D7000D50380E20E948C030E94D50301501040ED
:100D8000C7CF0E9419052A960FB6F894DEBF0FBE92
:100D9000CDBFDF91CF911F910F91FF90EF90DF902A
:100DA000CF90BF90AF9008950F931F93CF93DF9391
:100DB0008C010E94C303C0E0D0E00E94A7028332EE
:100DC00081F08A32B1F0CA30D105B9F3F801EC0FE5
:100DD000FD1F808321968AE20E948C03CB30D105CF
:100DE00064F30E94CC038C2FDF91CF911F910F9160
:100DF0000895209711F30E94D50380E20E948C038E
:100E00000E94D5032197EACFCF92DF92FF920F93F2
:100E10001F93CF93DF9300D0CDB7DEB7182F81E0BB
:100E200069837A830E94570269817A81811759F018
:100E300080E00F900F90DF91CF911F910F91FF9065
:100E4000DF90CF900895882311F16B0152E0F52EC9
:100E5000F80E12E003C01F5F1F15C9F0D6010D91F7
:100E60006D01812F0E9457020817A9F30E94080400
:100E70008EE291E00E94E7038FE39DE0A3E08150C2
:100E80009040A040E1F700C0000080E0D2CF81E0B8
:100E9000D0CF82E463E041E00E94C50182E460E0DB
:100EA00041E00E94C50182E461E040E00E94C5018A
:100EB0000E94080484E391E00E94E7038FE79AE12F
:100EC000A6E081509040A040E1F700C0000082E41D
:100ED00063E040E00E94C50189E190E060E00E948B
:100EE0004A02089582E463E041E00E94C50182E481
:100EF00060E040E00E94C50182E461E041E00E94C0
:100F0000C50182E464E041E00E94C501C49A8FE714
:100F10009AE1A6E081509040A040E1F700C00000B7
:100F200082E464E040E00E94C50182E463E040E0C6
:100F30000E94C50108951F920F920FB60F921124BF
:100F40002F933F934F935F936F937F938F939F93D1
:100F5000AF93BF93EF93FF93F89482E463E041E093
:100F60000E94C50182E460E040E00E94C50182E485
:100F700061E041E00E94C50182E464E041E00E943A
:100F8000C501C49A8FE79AE1A6E081509040A04045
:100F9000E1F700C0000082E464E040E00E94C50187
:100FA00082E463E040E00E94C5017894FF91EF91F4
:100FB000BF91AF919F918F917F916F915F914F9171
:100FC0003F912F910F900FBE0F901F901895EF92A9
:100FD000FF920F931F93CF93DF93CDB7DEB72B977D
:100FE0000FB6F894DEBF0FBECDBF7E010894E11CA2
:100FF000F11C8AE0D7011D928A95E9F70E94080446
:1010000088E491E00E94E70381E062E00E94A1038E
:101010008DE591E00E94E7038FE39DE0A3E081501E
:101020009040A040E1F700C000000E9408048DE657
:1010300091E00E94E70381E062E00E94A1030E9428
:10104000C30300E010E00E94A702833291F08A32CD
:1010500009F47EC00A301105B1F3F701E00FF11F6A
:1010600080830F5F1F4F8AE20E948C030B301105B3
:1010700054F30E94CC039981905399838A818053C1
:101080008A838B8180538B838C8180538C838D8169
:1010900080538D838E8180538E838F8180538F8385
:1010A0008885805388878985805389878A8580537E
:1010B0008A870A3009F05AC08BE19B870E94570249
:1010C0009B859817B1F50A818CE10E945702081799
:1010D00081F50B818DE10E945702081751F50C81B3
:1010E0008EE10E945702081721F50D818FE10E94C1
:1010F00057020817F1F40E8180E20E945702081788
:10110000C1F40F8181E20E945702081791F408850B
:1011100082E20E945702081761F4098583E20E9467
:101120005702081731F40A8584E20E94570291E0C1
:10113000081390E0892F2B960FB6F894DEBF0FBEF0
:10114000CDBFDF91CF911F910F91FF90EF90089548
:101150000115110509F477CF0E94D50380E20E94A2
:101160008C030E94D5030150104080CF0E940804D8
:10117000802F90E06DED71E04AE050E00E945A0B44
:101180000E94E7038FE39DE0A3E081509040A040E0
:10119000E1F700C0000090E0CDCFCF93DF9389E16D
:1011A0000E945702682F6F5F6093DC0189E190E035
:1011B0000E944A0289E10E945702833091F189E13D
:1011C0000E945702863069F189E10E9457028930F6
:1011D00008F457C08AE190E06FEF0E944A020E9433
:1011E000E7078823E1F30E94080481EA91E00E9466
:1011F000E7038AE190E060E00E944A0289E190E022
:1012000060E00E944A028FE39DE0A3E0815090409D
:10121000A040E1F700C000000E941905DF91CF91C6
:1012200008950E94080481E061E00E94A1038EE716
:1012300091E00E94E70381E062E00E94A1038DE853
:1012400091E00E94E703CBE3D0E08EE062E00E94F1
:10125000A103CE016DED71E04AE050E00E945A0B0F
:101260008DED91E00E94E70387EA91E60197F1F79F
:1012700000C00000219749F70E945D09DF91CF91DE
:1012800008950E94080481E061E00E94A1038EE7B6
:1012900091E00E94E70381E062E00E94A10386EBF7
:1012A00091E00E94E7038FE39DE0A3E0815090402E
:1012B000A040E1F700C00000DFCFDF92EF92FF9285
:1012C0000F931F93CF93DF93CDB7DEB72B970FB656
:1012D000F894DEBF0FBECDBF7E010894E11CF11C67
:1012E0008BE0D7011D928A95E9F70E94080485ECEE
:1012F00091E00E94E70381E062E00E94A1030E9466
:10130000C30300E010E00E94A702833289F08A3212
:1013100031F10A301105B9F3F701E00FF11F8083B5
:101320000F5F1F4F8AE20E948C030B3011055CF3A4
:101330000E94CC0381E00E9457020817E9F00E9446
:10134000CD082B960FB6F894DEBF0FBECDBFDF9150
:10135000CF911F910F91FF90EF90DF9008950115AD
:10136000110589F20E94D50380E20E948C030E943D
:10137000D50301501040D9CF0023F1F00E5F12E0E9
:1013800003C01F5F1017C1F0F701D1907F01812FBB
:101390000E945702D816A9F30E9408048EE291E039
:1013A0000E94E7038FE39DE0A3E081509040A040BE
:1013B000E1F700C00000C3CF82E463E041E00E9497
:1013C000C50182E460E041E00E94C50182E461E081
:1013D00040E00E94C5010E94080484E391E00E945D
:1013E000E7038FE79AE1A6E081509040A040E1F743
:1013F00000C0000082E463E040E00E94C50189E192
:1014000090E060E00E944A029CCFCF93DF93CDB77B
:10141000DEB72B970FB6F894DEBF0FBECDBF0E948C
:10142000D0046E010894C11CD11C6AE0B62E7BE08A
:10143000A72E8AE10E9457028F3F09F460C00E94E4
:10144000080480E790E00E94E70381E062E00E94E8
:10145000A10384E890E00E94E7030E94A7020E9493
:10146000080483E990E00E94E70381E062E00E94C3
:10147000A1038DE990E00E94E7030E94A702982F44
:101480009153923060F7D601813309F466C0EB2D99
:101490001D92EA95E9F70E9408048AE191E00E9412
:1014A000E70381E062E00E94A1030E94C30300E021
:1014B00010E00E94A702833291F08A3209F43FC003
:1014C0000A301105B1F3F601E00FF11F80830F5FC1
:1014D0001F4F8AE20E948C030B30110554F30E94C7
:1014E000CC0381E00E945702081709F474C00E94DF
:1014F0004B068AE10E9457028F3F09F0A0CF0E945D
:10150000E7078823E1F30E94080481EA91E00E9442
:10151000E7038AE190E060E00E944A0289E190E0FE
:1015200060E00E944A028FE39DE0A3E0815090407A
:10153000A040E1F700C000000E94190580CF01150E
:10154000110509F4B6CF0E94D50380E20E948C03F6
:101550000E94D50301501040BFCFEA2D1D92EA959D
:10156000E9F70E94080485EC91E00E94E70381E01E
:1015700062E00E94A1030E94C30300E010E00E9409
:10158000A702833289F08A32C9F00A301105B9F313
:10159000F601E00FF11F80830F5F1F4F8AE20E9468
:1015A0008C030B3011055CF30E94CC0381E00E9498
:1015B0005702081791F10E94CD083BCF0115110584
:1015C000F1F20E94D50380E20E948C030E94D503B1
:1015D00001501040E6CF002309F440C076010E5FB1
:1015E00012E003C01F5F1017C9F1D7019D907D0164
:1015F000812F0E9457029816A9F30E9408048EE2D8
:1016000091E00E94E7038FE39DE0A3E081509040CA
:10161000A040E1F700C000006ACF002311F176017D
:101620000E5F12E003C01F5F1017D9F0D7019D9025
:101630007D01812F0E9457029816A9F30E94080489
:101640008EE291E00E94E7038FE39DE0A3E08150EA
:101650009040A040E1F700C00000ADCF0E94190506
:10166000E8CE82E463E041E00E94C50182E460E0EC
:1016700041E00E94C50182E461E040E00E94C501B2
:101680000E94080484E391E00E94E7038FE79AE157
:10169000A6E081509040A040E1F700C0000082E445
:1016A00063E040E00E94C50189E190E060E00E94B3
:1016B0004A02BFCEFB019F01E8944230C4F045329C
:1016C000B4F44A3029F497FB1EF4909581959F4F0E
:1016D000642F77270E948B0B805D8A330CF0895D25
:1016E0008193CB010097A1F716F45DE2519310822C
:1016F000C9010C947B0BDC01FC01672F71917723EE
:10170000E1F7329704C07C916D9370836291AE17BC
:10171000BF07C8F30895AA1BBB1B51E107C0AA1F4E
:10172000BB1FA617B70710F0A61BB70B881F991F82
:101730005A95A9F780959095BC01CD010895F8942C
:02174000FFCFD9
:101742003132332F3435363D3738392D2A30232B79
:101752002050617373776F72642D6C6F636B2064BA
:101762006F6F720020202020202057656C636F6D00
:101772006521002831294C6F672D696E00283229B6
:101782004368616E67652050617373776F7264009E
:10179200596F7572206E65772050617373776F721F
:1017A200643A200052652D656E7465722050617333
:1017B20073776F72643A20004661696C6564206FCA
:1017C2007065726174696F6E00506C7A2C2054726D
:1017D2007920616761696E002020596F75722070EF
:1017E200617373776F726420697300202020202058
:1017F20020697320736176656400456E746572209A
:101802006F6C642070617373776F72643A006272F6
:1018120065616B002054686520646F6F7220697384
:10182200206F70656E6564002054686520646F6F78
:101832007220697320636C6F73656420002020201E
:10184200207065726D616E656E746C7900456E74A0
:1018520065722050554B20636F64653A20005772C1
:101862006F6E672070617373776F72640054727960
:1018720020616761696E20696E20202020536563B4
:10188200005375636365737366756C206F70657260
:101892006174696F6E00506C7A2C207472792061C9
:1018A2006761696E00456E74657220796F7572208A
:0C18B20070617373776F72643A2000005D
:00000001FF
