:100000000C942A000C9447000C9447000C9447066B
:100010000C9447000C9447000C9447000C94470044
:100020000C9447000C9447000C9447000C94470034
:100030000C9447000C9447000C9447000C94470024
:100040000C9447000C9447000C9447000C94470014
:100050000C94470011241FBECFE5D8E0DEBFCDBF12
:1000600011E0A0E6B0E0E0E0FFE002C005900D92F4
:10007000AC3AB107D9F712E0ACEAB1E001C01D9289
:10008000A131B107E1F70E9421070C947E070C947F
:10009000000096B1987F96B98031C1F0813138F473
:1000A000843071F0883071F08230F1F407C0803410
:1000B00099F08038A9F08032B9F40AC0309A0895D6
:1000C000319A089586B1836086B90895329A089569
:1000D00086B1856086B9089586B1866086B908952F
:1000E00086B1876086B9089586B186B9089597B1BB
:1000F0009F7397B9813041F0813018F0823051F40C
:1001000005C087B187B908953E9A089587B1806C7C
:1001100087B9089587B187B90895CF93DF93D62F14
:10012000C42F379A0E9449008D2F0E947700CC235C
:1001300011F03D9A01C03D98DF91CF91089597B19C
:10014000907C97B98330B9F0843028F4813079F00D
:10015000823078F409C08530A1F0853080F0863097
:10016000A1F08730D1F415C087B187B90895389AC6
:100170000895399A089587B1836087B908953A9AA6
:10018000089587B1856087B9089587B1866087B97A
:10019000089587B1876087B9089597B18F71892BCA
:1001A00087B908950E949F00369A349BFECF84B190
:1001B00095B1392F20E090E0822B932B0895843461
:1001C00009F4B8C0853450F4823409F44BC0833448
:1001D00008F07CC0813409F0DFC010C0823609F419
:1001E00041C0833620F4813609F0D6C007C083367B
:1001F00009F46CC0843609F0CFC09CC0442371F46C
:100200002AB381E090E0AC0102C0440F551F6A950B
:10021000E2F7BA01609562236ABB0895423091F417
:100220002AB381E090E0AC0102C0440F551F6A95EB
:10023000E2F7BA01842F809582238ABB8BB3682BA7
:100240006BBB0895413009F0A7C02AB381E090E06C
:10025000AC0102C0440F551F6A95E2F7BA01622B48
:100260006ABB0895442371F427B381E090E0AC01A8
:1002700002C0440F551F6A95E2F7BA0160956223E8
:1002800067BB0895423091F427B381E090E0AC0160
:1002900002C0440F551F6A95E2F7BA01842F80957A
:1002A000822387BB88B3682B68BB0895413009F06F
:1002B00073C027B381E090E0AC0102C0440F551F2A
:1002C0006A95E2F7BA01622B67BB0895442371F483
:1002D00024B381E090E0AC0102C0440F551F6A9541
:1002E000E2F7BA016095622364BB0895423091F44D
:1002F00024B381E090E0AC0102C0440F551F6A9521
:10030000E2F7BA01842F8095822384BB85B3682BE2
:1003100065BB0895413009F03FC024B381E090E00F
:10032000AC0102C0440F551F6A95E2F7BA01622B77
:1003300064BB0895442371F421B381E090E0AC01E3
:1003400002C0440F551F6A95E2F7BA016095622317
:1003500061BB0895423091F421B381E090E0AC019B
:1003600002C0440F551F6A95E2F7BA01842F8095A9
:10037000822381BB82B3682B62BB0895413061F454
:1003800021B381E090E0AC0102C0440F551F6A9593
:10039000E2F7BA01622B61BB0895843409F479C095
:1003A000853448F48234B1F1833408F053C0813489
:1003B00009F08DC00FC0823669F1833620F4813692
:1003C00009F085C007C0833609F444C0843609F0BB
:1003D0007EC05FC0442371F42BB381E090E0AC0198
:1003E00002C0440F551F6A95E2F7BA016095622377
:1003F0006BBB0895413009F06AC02BB381E090E0F7
:10040000AC0102C0440F551F6A95E2F7BA01622B96
:100410006BBB0895442371F428B381E090E0AC01F4
:1004200002C0440F551F6A95E2F7BA016095622336
:1004300068BB0895413009F04AC028B381E090E0DC
:10044000AC0102C0440F551F6A95E2F7BA01622B56
:1004500068BB0895442371F425B381E090E0AC01BA
:1004600002C0440F551F6A95E2F7BA0160956223F6
:1004700065BB0895413059F525B381E090E0AC01AA
:1004800002C0440F551F6A95E2F7BA01622B65BBA3
:100490000895442371F422B381E090E0AC0102C0DE
:1004A000440F551F6A95E2F7BA016095622362BB5B
:1004B0000895413061F422B381E090E0AC0102C0C4
:1004C000440F551F6A95E2F7BA01622B62BB08958B
:1004D0002CB39FBB8EBB6DBBE29AE19A87EA91E693
:1004E0000197F1F700C0000008959CB390E09FBB16
:1004F0008EBBE09A8DB30895863031F08730E9F0F5
:10050000853009F041C032C0662311F415BE11C018
:10051000613021F485B7816085BF0BC0633021F461
:1005200085B7826085BF05C0623019F485B78360E6
:1005300085BF8BB780648BBF0895662311F415BE09
:1005400011C0613021F485B7846085BF0BC0633072
:1005500021F485B7886085BF05C0623019F485B77E
:100560008C6085BF8BB780688BBF0895633021F4A2
:1005700085B78F7B85BF05C0623019F485B780646D
:1005800085BF8BB780628BBF089580EF84BB8FEFF0
:1005900085BB8FE083BB85B38F7085BB83B38F70C2
:1005A0008F30C9F787E893E10197F1F700C00000A9
:1005B00083B38F708F30B1F787E893E10197F1F73C
:1005C00000C0000083B38F708F3061F79FEE2FED76
:1005D0003FEB4FE795BB83B38F708F3089F425BB1A
:1005E00083B38F708F3071F435BB83B38F708F30CE
:1005F00059F445BB83B38F708F3061F3E3E005C0DE
:10060000E0E003C0E1E001C0E2E08E3049F4F0E058
:10061000EE0FFF1FEE0FFF1FE05AFF4F808108957E
:100620008D3049F4F0E0EE0FFF1FEE0FFF1FE05A90
:10063000FF4F818108958B3049F4F0E0EE0FFF1FEA
:10064000EE0FFF1FE05AFF4F82810895F0E0EE0F9A
:10065000FF1FEE0FFF1FE05AFF4F838108950097A1
:1006600019F000000197E9F70895009741F0E9EFCC
:10067000F0E03197F1F700C000000197C1F708954D
:10068000CF93C82F8BB39C2F907F8F70892B8BBB00
:10069000D898D998DA9A81E090E00E942F03DA98EE
:1006A00084E190E00E942F038BB3C295C07F8F70CE
:1006B000C82BCBBBDA9A81E090E00E942F03DA9836
:1006C000CF9108958FEF8ABB80ED97E00E942F03B2
:1006D00083E30E94400384E690E00E942F0382E3BC
:1006E0000E94400384E690E00E942F0388E20E946B
:1006F000400384E690E00E942F038CE00E944003B8
:1007000084E690E00E942F0381E00E94400380ED88
:1007100097E00E942F0386E00E94400384E690E069
:100720000E942F0308958FEF8ABBDA9880E29EE43F
:100730000E942F0383E00E94400380E197E20E9421
:100740002F0383E00E94400388EE93E00E942F0372
:1007500083E00E94400388EE93E00E942F0382E032
:100760000E94400388EE93E00E942F030895CF93E8
:10077000C82F8BB39C2F907F8F70892B8BBBD89AFF
:10078000D998DA9A81E090E00E942F03DA988BB32F
:10079000C295C07F8F70C82BCBBBDA9A81E090E006
:1007A0000E942F03DA98CF910895CF93DF9300D062
:1007B00000D0CDB7DEB790E8998390EC9A8394E9A6
:1007C0009B8394ED9C838150FE01E60FF11D908187
:1007D000890F0E94400384E690E00E942F030F904F
:1007E0000F900F900F90DF91CF9108958FE00E94AE
:1007F000400384E690E00E942F0308958CE00E945D
:10080000400384E690E00E942F0308950F931F9306
:10081000CF938C01FC018081882351F0C0E00E94BD
:10082000B703CF5FF801EC0FF11D80818823B9F782
:10083000CF911F910F91089581E00E94400380EDB8
:1008400097E00E942F0381E061E00E94D5030895A4
:100850000F931F93CF93DF93062F172F883070F4D9
:10086000880F880F880F805C0E944003C02FD12F13
:1008700018E089910E94B7031150D9F7DF91CF9109
:100880001F910F9108950E94620380E861E040E0AB
:100890000E948D0082E460E041E00E94DF0082E47B
:1008A00061E041E00E94DF0082E463E041E00E94F9
:1008B000DF0082E464E041E00E94DF0082E462E065
:1008C00042E00E94DF0085E063E00E947C027894B1
:1008D00089E190E060E00E94680208950E941C0493
:1008E00080E790E00E94060481E062E00E94D50368
:1008F00084E890E00E94060408950E941C0483E9A5
:1009000090E00E94060481E062E00E94D5038DE938
:1009100090E00E94060408954217B1F44423B1F018
:10092000FC013081FB012081321791F4DC0111962A
:10093000319680E004C02D919191291759F48F5F71
:100940008417C9F781E0089580E0089581E0089553
:1009500080E0089580E00895CF92DF92EF92FF92B9
:100960001F93CF93DF936C010E94F603E60111E021
:1009700001C0192F0E94C5027E0188838A3219F0B6
:100980008AE20E94B7031A3041F40E94C5028A32FB
:10099000E1F7F60182871BE007C02196912F9F5F48
:1009A000F70180818A3229F70E94FE03812FDF91AF
:1009B000CF911F91FF90EF90DF90CF900895CF924D
:1009C000DF92EF92FF920F931F93CF93DF93CDB7F8
:1009D000DEB766970FB6F894DEBF0FBECDBF8BE0D3
:1009E0008E010F5F1F4FD801E82F1D92EA95E9F79E
:1009F0000F2EFCE0EF2EFF24F02DEC0EFD1ED70194
:100A00001D928A95E9F70E941C0481E061E00E9432
:100A1000D50380EB90E00E94060481E062E00E9432
:100A2000D503C8010E94AC04C82E0E941C0481E0BA
:100A300061E00E94D50380EC90E00E94060481E012
:100A400062E00E94D503C7010E94AC04282FC801B0
:100A5000B7014C2D0E948C048823C9F1F89481E0E1
:100A600090E06C2D0E946802CC20C1F07801CA94FD
:100A700002E010E00C0F1D1F0C0D111DCC24DD2415
:100A80006894C1F8F70161917F01C6010E94680274
:100A90000894C11CD11CE016F106A1F778940E94BD
:100AA0001C0484ED90E00E94060481E062E00E9454
:100AB000D50387EE90E00E9406048FE39DE0A3E05B
:100AC00081509040A040E1F700C000001DC00E948E
:100AD0001C0481E061E00E94D50386EF90E00E9453
:100AE000060481E062E00E94D50387E091E00E9465
:100AF00006048FE39DE0A3E081509040A040E1F721
:100B000000C000000E94DF0466960FB6F894DEBFB6
:100B10000FBECDBFDF91CF911F910F91FF90EF904E
:100B2000DF90CF900895EF92FF921F93CF93DF93C2
:100B3000E82ED62FC72F81E00E9475028E15A1F4F2
:100B40008823A1F0ED2EFC2E182F1E5FC2E0F701C6
:100B5000D1917F018C2F0E947502D81749F4CF5F85
:100B6000C117A9F781E005C080E003C081E001C0A2
:100B700080E0DF91CF911F91FF90EF9008950F9348
:100B80001F93CF93DF93CDB7DEB72A970FB6F894B4
:100B9000DEBF0FBECDBF8E010F5F1F4F8AE0F80191
:100BA00011928A95E9F70E941C0486E191E00E9467
:100BB000060481E062E00E94D503C8010E94AC04F3
:100BC000B8010E949305882319F00E94DF0402C037
:100BD0000E94BF052A960FB6F894DEBF0FBECDBFA8
:100BE000DF91CF911F910F91089582E463E041E07E
:100BF0000E94CD0182E460E041E00E94CD0182E4E8
:100C000061E040E00E94CD010E941C048AE291E074
:100C10000E9406048FE79AE1A6E081509040A04030
:100C2000E1F700C0000082E463E040E00E94CD01F3
:100C300089E190E060E00E946802089582E463E048
:100C400041E00E94CD0182E460E041E00E94CD01DC
:100C500082E461E040E00E94CD0182E464E041E092
:100C60000E94CD01C49A8FE79AE1A6E0815090409E
:100C7000A040E1F700C0000082E464E040E00E9490
:100C8000CD0182E463E040E00E94CD0108951F920F
:100C90000F920FB60F9211242F933F934F935F93B0
:100CA0006F937F938F939F93AF93BF93EF93FF9334
:100CB000F8940E941E067894FF91EF91BF91AF9136
:100CC0009F918F917F916F915F914F913F912F9164
:100CD0000F900FBE0F901F9018950F931F93CF93F7
:100CE000DF9389E10E947502682F6F5F6093AC010A
:100CF00089E190E00E94680289E10E9475028330D8
:100D000029F089E10E947502863071F50E941C0469
:100D100081E061E00E94D5038EE391E00E94060429
:100D200081E062E00E94D5038DE491E00E94060418
:100D3000CBE3D0E00DEA11E08EE062E00E94D50343
:100D4000CE01B8014AE050E00E943907C8010E9474
:100D5000060487EA91E60197F1F700C000002197A9
:100D600059F70E94EB0632C089E10E947502893072
:100D700080F00E941C048AE190E06FEF0E946802FC
:100D800081E691E00E94060486E791E00E94060455
:100D9000FFCF0E941C0481E061E00E94D5038EE336
:100DA00091E00E94060481E062E00E94D50386E89B
:100DB00091E00E9406048FE39DE0A3E08150904003
:100DC000A040E1F700C000000E94EB06DF91CF9148
:100DD0001F910F9108950F931F93CF93DF93CDB77A
:100DE000DEB72B970FB6F894DEBF0FBECDBF8E01D6
:100DF0000F5F1F4F8BE0F80111928A95E9F70E946F
:100E00001C0485E991E00E94060481E062E00E94F2
:100E1000D503C8010E94AC04B8010E949305882341
:100E200019F00E94F50502C00E946D062B960FB6C0
:100E3000F894DEBF0FBECDBFDF91CF911F910F9110
:100E400008950E9443040E946E040E94C5020E94FD
:100E50007D040E94C502982F91539230C0F78133D0
:100E600019F40E94EB06EFCF823369F70E94BF05A9
:100E7000EACFFB019F01E8944230C4F04532B4F45C
:100E80004A3029F497FB1EF4909581959F4F642F6B
:100E900077270E946A07805D8A330CF0895D819311
:100EA000CB010097A1F716F45DE251931082C901BE
:100EB0000C945A07DC01FC01672F71917723E1F74D
:100EC000329704C07C916D9370836291AE17BF0717
:100ED000C8F30895AA1BBB1B51E107C0AA1FBB1F83
:100EE000A617B70710F0A61BB70B881F991F5A95B6
:100EF000A9F780959095BC01CD010895F894FFCF96
:100F00003132332F3435363D3738392D2A30232BC3
:100F10002050617373776F72642D6C6F636B206404
:100F20006F6F720020202020202057656C636F6D4A
:100F30006521002831294C6F672D696E0028322900
:100F40004368616E67652050617373776F726400E8
:100F5000596F75722050617373776F72643A200015
:100F600052652D656E7465722050617373776F7270
:100F7000643A20002020596F757220706173737776
:100F80006F72642069730020202020202069732064
:100F90007361766564004661696C6564206F706595
:100FA000726174696F6E00506C7A2C2054727920D3
:100FB000616761696E00456E746572206F6C6420B4
:100FC00070617373776F72643A00205468652064AF
:100FD0006F6F72206973206F70656E656400577261
:100FE0006F6E672070617373776F726400547279EB
:100FF00020616761696E20696E202020205365633F
:10100000002054686520646F6F7220697320636CE0
:101010006F7365642000202020207065726D616E02
:10102000656E746C7900506C7A2C20747279206132
:101030006761696E00456E74657220796F75722004
:0C10400070617373776F72643A200000D7
:00000001FF
